:100000000C943A010C9459010C9459010C94590127
:100010000C9459010C9459010C9459010C945901F8
:100020000C9459010C9459010C9459010C945901E8
:100030000C9459010C9459010C9459010C945901D8
:100040000C9459010C9459010C9459010C945901C8
:100050000C9459010C9459010C9459010C94A01062
:100060000C9459010C9459010C9459010C945901A8
:100070000C9459010C9459010C9459010C94590198
:100080000C9459010C9459010C9459010C94590188
:100090000C9459010C945901000000000000005F0D
:1000A00000000003000300143E143E14242A7F2A9B
:1000B000124333086661364955225000050300009B
:1000C000001C2241000041221C0014083E081408B4
:1000D000083E0808005030000008080808080060C2
:1000E00060000020100804023E5149453E00040211
:1000F0007F00426151494622414949361814127F16
:100100001027454545393E494949320101710907E2
:100110003649494936264949493E003636000000ED
:10012000563600000814224100141414141400411F
:1001300022140802015109063E4159555E7E090903
:10014000097E7F494949363E414141227F41414133
:100150003E7F494949417F090909013E4141493AE8
:100160007F0808087F00417F4100304040403F7FCA
:10017000081422417F404040407F020C027F7F02F2
:1001800004087F3E4141413E7F090909061E2121A5
:10019000215E7F09090976264949493201017F011B
:1001A000013F4040403F1F2040201F7F2010207F04
:1001B00041221C224107087008076151494543004C
:1001C0007F41000002040810200000417F0004026B
:1001D0000102044040404040000102040020545409
:1001E00054787F4444443838444444443844444474
:1001F0007F385454541804047E0505085454543C64
:100200007F0804047800447D40002040443D007F86
:100210001028440000417F40007C047804787C086A
:1002200004047838444444387C1414140808141422
:10023000147C007C080404485454542004043F44B3
:10024000443C4040207C1C2040201C3C4030403C32
:1002500044281028440C5050503C4464544C4400F2
:100260000836414100007F0000414136080002018C
:100270000204020011241FBECFEFD0E2DEBFCDBFCB
:1002800011E0A0E0B1E0E0EBF0E300E00BBF02C062
:1002900007900D92AE35B107D9F713E0AEE5B1E0A6
:1002A00001C01D92AA31B107E1F70E94FE0B0C9428
:1002B00056180C94000080917C008B6480937C0025
:1002C00080917A00866080937A0080917A00806CB9
:1002D00080937A0020EA3FE003C0C9010197F1F75B
:1002E00080917A0084FFF9CF2091780030E040912E
:1002F000790080917A008F7780937A00942F80E044
:10030000282B392B81EE9CEA28273927C90108952B
:100310008F929F92AF92BF92CF92DF92EF92FF9215
:100320000F931F93DF93CF93CDB7DEB7FC01CF8C34
:10033000D8A009A11AA18F8498888C0C9D1CAB8829
:10034000BC88AC0CBD1CAF89B88DAC0DBD1D6B8DD0
:100350007C8D6C0D7D1DE988FA88E00EF11E4D89BB
:100360005E89400F511F298D3A8D200F311F8D8DD1
:100370009E8D800F911F9787868775876487338747
:100380002287B187A08757834683B582A482138BC7
:10039000028BD18AC08AF382E28291828082CF016D
:1003A000CF91DF911F910F91FF90EF90DF90CF9051
:1003B000BF90AF909F908F900895DF93CF93CDB76C
:1003C000DEB72B853C854F8558896B897C898F8169
:1003D0009885181619067CF41216130664F4141680
:1003E00015064CF490E0161617060CF091E081E02B
:1003F0009827892F02C080E090E0CF91DF91089587
:10040000DF93CF93CDB7DEB78DB79EB744970FB6C6
:10041000F8949EBF0FBE8DBFADB7BEB71196FE015B
:10042000359684E101900D928150E1F7CE01059659
:100430000E9488018D819E81FC01EE0FFF1FE80F55
:10044000F91FA3E0EE0FFF1FAA95E1F78F819885B2
:10045000E80FF91FED56FE4F21E0208389859A852C
:10046000FC01EE0FFF1FE80FF91F63E0EE0FFF1F07
:100470006A95E1F78B859C85E80FF91FED56FE4FD5
:1004800020838D859E85FC01EE0FFF1FE80FF91F6D
:1004900043E0EE0FFF1F4A95E1F78F859889E80F3B
:1004A000F91FED56FE4F208389899A89FC01EE0FD2
:1004B000FF1FE80FF91F83E0EE0FFF1F8A95E1F79A
:1004C0008B899C89E80FF91FED56FE4F20838DB76D
:1004D0009EB744960FB6F8949EBF0FBE8DBFCF91C6
:1004E000DF910895AC0197FD17C077FD15C06A3004
:1004F000710594F4FB01EE0FFF1FE60FF71F83E079
:10050000EE0FFF1F8A95E1F7E40FF51FED56FE4F42
:10051000E08181E0E82701C0E0E08E2F0895DF93BD
:10052000CF93CDB7DEB78DB79EB744970FB6F8948B
:100530009EBF0FBE8DBFADB7BEB71196FE013596FB
:1005400084E101900D928150E1F7CE0105960E9461
:1005500088018DB79EB744960FB6F8949EBF0FBE24
:100560008DBF6D817E818F8198850E947202882364
:10057000F1F069857A858B859C850E9472028823BB
:10058000B1F06D857E858F8598890E9472028823DF
:1005900071F069897A898B899C890E94720290E046
:1005A000882309F491E081E09827892F02C080E038
:1005B00090E0CF91DF9108952F923F924F925F92FA
:1005C0006F927F928F929F92AF92BF92CF92DF9263
:1005D000EF92FF920F931F93DF93CF93CDB7DEB7C8
:1005E000A2970FB6F894DEBF0FBECDBF8C0129963F
:1005F0002EAD3FAD29973A8F298F2B968EAD9FADAB
:100600002B97988F8F8BE9ADFAADFE8BED8B8FA872
:1006100098AC2DAC3EACABACBCAC23964EAC5FAC56
:1006200023972196CEACDFAC219727966EAC7FAC9A
:1006300027972596EEACFFAC2597C401382D292FBE
:100640008A149B041CF4C5013A2D292F832F922F65
:100650008C159D050CF4C6018E159F050CF4C70181
:100660009C01281939093AA329A3FC01EA19FB09BD
:10067000F8A3EF8F9C012C193D093E8F2D8FFC01B3
:10068000EE19FF09FC8FEB8FF88BEF877E866D8666
:100690003C872B875A8649862F8D38A138872F8330
:1006A0003E822D8289A19AA19C838B83ED89FE894C
:1006B000FA83E9832F89388D3C8B2B8B898D9A8D1A
:1006C0009A8B898BEDB7FEB774970FB6F894FEBF7F
:1006D0000FBEEDBFADB7BEB71196FE01319684E1F6
:1006E00001900D928150E1F70E948F022DB73EB725
:1006F0002C5E3F4F0FB6F8943EBF0FBE2DBF882330
:10070000E1F02B8D3C8DF80137872687758664864E
:100710008D8D9E8D93878287518640862F8D38A13F
:10072000378326833582248289A19AA19383828389
:100730002D893E893183208313C0F801F586E48634
:1007400077866686D186C08653864286B582A48225
:1007500037822682918280822D893E89338322834B
:100760008F89988D938B828B298D3A8D318B208B3D
:10077000C801A2960FB6F894DEBF0FBECDBFCF91D1
:10078000DF911F910F91FF90EF90DF90CF90BF907E
:10079000AF909F908F907F906F905F904F903F9021
:1007A0002F9008959B01BC01C90108950F931F93D9
:1007B000DF93CF93CDB7DEB764970FB6F894DEBF63
:1007C0000FBECDBF8C01FC01408B518B628B738BB4
:1007D0000E94081567E070E00E9486149C01833037
:1007E000910509F44BC0843091054CF4813091059A
:1007F000F9F08230910574F5009771F095C085305D
:10080000910509F463C0853091050CF44BC0863026
:10081000910509F089C070C0F8011382128211821B
:10082000108221E030E0378326831582148245C090
:10083000F801938382831182108282E090E0978393
:100840008683158214821386128631872087378724
:1008500026874FC0F80113821282118210821782FC
:10086000168281E090E095838483938782879187C5
:1008700080871786168682E090E011C0F801138207
:1008800012821182108281E090E097838683158224
:10089000148213861286918780879787868795872B
:1008A000848746C0F8011382128211821082178257
:1008B000168221E030E03583248333872287318715
:1008C000208782E090E09787868713C0F801138223
:1008D00012821182108221E030E037832683158254
:1008E000148282E090E093878287118610861786B3
:1008F0001686358724871CC0F80113821282118264
:10090000108281E090E0978386831582148282E0D2
:1009100090E0938782871186108683E090E0978726
:1009200086871586148604C080E091E00E94EC0F53
:10093000C80164960FB6F894DEBF0FBECDBFCF914D
:10094000DF911F910F910895809162019091630151
:1009500067ED70E048E750E00E9442100895EF9282
:10096000FF920F931F93F82EE92E00915E011091D4
:100970005F010E94E711992787FD9095800F911FD5
:1009800090935F0180935E018F2D9E2D1F910F919B
:10099000FF90EF900895E1E6F0E080E88083108218
:1009A000279A6C986D98749A759A0E94910E0E947D
:1009B0006E110E9477120E945B010E940D157894BF
:1009C00008950F931F93DF93CF93CDB7DEB728978A
:1009D0000FB6F894DEBF0FBECDBF8A019B01AB01FD
:1009E00073E0440F551F7A95E1F7220F331F420F32
:1009F000531F475C5F4F5A8349834A5F5F4F5C8355
:100A00004B8326EF3FEFAC01249FC001259F900D43
:100A1000349F900D112482519F4F98878F830697A2
:100A20009E838D83F89429813A814B815C816D810D
:100A30007E818F8198850E94410D789428960FB60B
:100A4000F894DEBF0FBECDBFCF91DF911F910F9104
:100A500008954FEF5FEF0E94E10408958F929F92F7
:100A6000AF92BF92CF92DF92EF92FF920F931F93BC
:100A7000CF93DF936C01FC01ED56FE4F91E020E037
:100A800030E08081882309F490E02F5F3F4F789613
:100A90002A303105B1F7992309F452C080916201DF
:100AA000909163010196909363018093620167EDD9
:100AB00070E048E750E00E944210C0E0D0E07E01C4
:100AC0008601C801B7010E9429052196CA30D105C7
:100AD000B1F746010894811C911C560123C0F60110
:100AE00081818083882371F07E018401C801B70170
:100AF0000E9429058501C801B7014FEF55E00E940A
:100B0000E10490E0219628E130E0C20ED31ECA3005
:100B1000D10529F70894A11CB11C992389F40894E4
:100B2000811C911C38E18316910454F4E3E9CE2E24
:100B3000E1E0DE2ECA0CDB1C91E0C0E0D0E0CFCFBC
:100B4000DF91CF911F910F91FF90EF90DF90CF90A9
:100B5000BF90AF909F908F900895EF92FF920F9368
:100B60001F93DF93CF93CDB7DEB7EB8CFC8C2B8933
:100B70003C898B859C85821793070CF4C9012F85CE
:100B80003889821793070CF4C9012F89388D821791
:100B900093070CF4C9018C010E0D1F1D05C0C8017F
:100BA0000E942E05015010400E151F05C4F7CF916D
:100BB000DF911F910F91FF90EF9008950F931F9376
:100BC000DF93CF93CDB7DEB70B8D1C8D8DB79EB75E
:100BD00044970FB6F8949EBF0FBE8DBFADB7BEB79A
:100BE0001196FE01379684E101900D928150E1F754
:100BF000CE0107960E9488018DB79EB744960FB626
:100C0000F8949EBF0FBE8DBF6F81788589859A85C8
:100C1000A8010E94E1046B857C858D859E85A801D5
:100C20000E94E1046F85788989899A89A8010E94C8
:100C3000E1046B897C898D899E89A8010E94E10469
:100C4000CF91DF911F910F910895DF93CF93CDB78F
:100C5000DEB78DB79EB746970FB6F8949EBF0FBE0E
:100C60008DBF2DB73EB72F5F3F4FD901FE0135969F
:100C700084E101900D928150E1F78FEF9FEFF90130
:100C8000958B848B0E94DE058DB79EB746960FB676
:100C9000F8949EBF0FBE8DBFCF91DF910895DF9373
:100CA000CF93CDB7DEB764970FB6F894DEBF0FBE13
:100CB000CDBFDE011196EBE6F1E084E101900D92EB
:100CC0008150E1F7A981BA81ED81FE8169857A853C
:100CD0004D855E85CD019C01861797070CF49B011D
:100CE0002E173F070CF49F01241735070CF49A01C7
:100CF00089899A89820F931F09970CF0C0C0A98334
:100D0000BA83FE83ED837A8769875E874D878DB7C7
:100D10009EB744970FB6F8949EBF0FBE8DBFADB778
:100D2000BEB71196FE01319684E101900D9281507B
:100D3000E1F7CE0101960E9488012D813E8149850F
:100D40005A856D857E8589819A810196FC01EE0F19
:100D5000FF1FE80FF91FB3E0EE0FFF1FBA95E1F791
:100D60008B819C81E80FF91FED56FE4F8DB79EB722
:100D700044960FB6F8949EBF0FBE8DBF8081882326
:100D800009F07DC0C9010196FC01EE0FFF1FE80FBD
:100D9000F91F33E0EE0FFF1F3A95E1F78F81988539
:100DA000E80FF91FED56FE4F8081882309F067C0D8
:100DB000CA010196FC01EE0FFF1FE80FF91F83E047
:100DC000EE0FFF1F8A95E1F78B859C85E80FF91FD1
:100DD000ED56FE4F8081882309F051C0CB0101966A
:100DE000FC01EE0FFF1FE80FF91FA3E0EE0FFF1F3E
:100DF000AA95E1F78F859889E80FF91FED56FE4F08
:100E00008081882309F03BC0F894EDB7FEB7749752
:100E10000FB6F894FEBF0FBEEDBFADB7BEB71196CB
:100E2000EBE6F1E084E101900D928150E1F70E9440
:100E3000250680917B0190917C01019690937C0125
:100E400080937B0100D02DB73EB72F5F3F4FD90174
:100E5000EBE6F1E084E101900D928150E1F78FEF34
:100E600095E0F901958B848B0E94DE0578948DB70F
:100E70009EB746960FB6F8949EBF0FBE8DBF649680
:100E80000FB6F894DEBF0FBECDBFCF91DF910895AE
:100E9000DF93CF93CDB7DEB764970FB6F894DEBF7C
:100EA0000FBECDBF80917B0190917C011816190671
:100EB0000CF0BEC0DE011196EBE6F1E084E101909A
:100EC0000D928150E1F78DB79EB744970FB6F89415
:100ED0009EBF0FBE8DBFADB7BEB71196FE01319656
:100EE00084E101900D928150E1F7CE0101960E94BC
:100EF000880189819A810197FC01EE0FFF1FE80F9D
:100F0000F91F73E0EE0FFF1F7A95E1F78B819C814B
:100F1000E80FF91FED56FE4F8DB79EB744960FB6FA
:100F2000F8949EBF0FBE8DBF8081882309F080C0DA
:100F30008D819E810197FC01EE0FFF1FE80FF91FC5
:100F400053E0EE0FFF1F5A95E1F78F819885E80F68
:100F5000F91FED56FE4F8081882309F069C089850D
:100F60009A850197FC01EE0FFF1FE80FF91F33E090
:100F7000EE0FFF1F3A95E1F78B859C85E80FF91F6F
:100F8000ED56FE4F8081882309F052C08D859E85E5
:100F90000197FC01EE0FFF1FE80FF91FB3E0EE0F02
:100FA000FF1FBA95E1F78F859889E80FF91FED5675
:100FB000FE4F8081882309F03BC0F894EDB7FEB75F
:100FC00074970FB6F894FEBF0FBEEDBFADB7BEB7B6
:100FD0001196EBE6F1E084E101900D928150E1F78A
:100FE0000E94250680917B0190917C01019790934E
:100FF0007C0180937B0100D02DB73EB72F5F3F4F20
:10100000D901EBE6F1E084E101900D928150E1F726
:101010008FEF95E0F901958B848B0E94DE05789423
:101020008DB79EB746960FB6F8949EBF0FBE8DBF84
:1010300064960FB6F894DEBF0FBECDBFCF91DF919F
:1010400008950F931F93DF93CF93CDB7DEB76497C7
:101050000FB6F894DEBF0FBECDBF8DB79EB74497D5
:101060000FB6F8949EBF0FBE8DBFADB7BEB7119639
:10107000EFE7F1E084E101900D928150E1F70E94E9
:101080002506EDB7FEB774960FB6F894FEBF0FBEF7
:10109000EDBF8E010F5F1F4FC80141E150E060E1DD
:1010A00070E00E94D603AFE7B1E0F80184E101905F
:1010B0000D928150E1F78DB79EB746970FB6F89421
:1010C0009EBF0FBE8DBF2DB73EB72F5F3F4FD901DB
:1010D000EFE7F1E084E101900D928150E1F78FEFAD
:1010E00095E0F901958B848B0E94DE058DB79EB744
:1010F00046960FB6F8949EBF0FBE8DBF64960FB68E
:10110000F894DEBF0FBECDBFCF91DF911F910F913D
:101110000895EF92FF920F931F93DF93CF93CDB774
:10112000DEB764970FB6F894DEBF0FBECDBFF82EC2
:10113000E92EF894DE011196EBE6F1E084E10190EE
:101140000D928150E1F70B891C89015010401C8BD6
:101150000B8B2DB73EB7245130400FB6F8943EBFED
:101160000FBE2DBFADB7BEB71196FE01319684E11B
:1011700001900D928150E1F70E948F02EDB7FEB70A
:1011800074960FB6F894FEBF0FBEEDBF882309F426
:1011900040C02DB73EB7245130400FB6F8943EBF43
:1011A0000FBE2DBFADB7BEB71196EBE6F1E084E1FF
:1011B00001900D928150E1F70E9425061C8B0B8B4C
:1011C00000D02DB73EB72F5F3F4FD901FE013196BA
:1011D00084E101900D928150E1F78FEF95E0F901E4
:1011E000958B848B0E94DE051C8B0B8BABE6B1E0EC
:1011F000FE01319684E101900D928150E1F72DB707
:101200003EB72A5E3F4F0FB6F8943EBF0FBE2DBFCC
:101210003FC08DB79EB744970FB6F8949EBF0FBEE0
:101220008DBFADB7BEB71196EBE6F1E084E101905A
:101230000D928150E1F70E940002ADB7BEB7119642
:10124000EBE6F1E084E101900D928150E1F70E941C
:10125000AD05ABE6B1E0EFE7F1E084E101900D927E
:101260008150E1F785E190E090937E0180937D01CC
:1012700084E090E090937C0180937B01EDB7FEB712
:1012800074960FB6F894FEBF0FBEEDBF0E94210802
:1012900078948F2D9E2D64960FB6F894DEBF0FBE06
:1012A000CDBFCF91DF911F910F91FF90EF900895E7
:1012B0004F925F926F927F928F929F92AF92BF9266
:1012C000CF92DF92EF92FF920F931F93DF93CF9312
:1012D000CDB7DEB7A8970FB6F894DEBF0FBECDBF6F
:1012E000A0907D01B0907E01C0907B01D0907C01E8
:1012F000E0907901F0907A010091770110917801E6
:10130000A0917501B0917601E0917301F0917401A3
:10131000609171017091720140916F015091700163
:1013200020916D0130916E0180916B0190916C0163
:101330009A8389833C832B835E834D8378876F8375
:10134000FA87E987BC87AB871E870D87F88AEF8607
:10135000DA8AC98ABC8AAB8A8DB79EB744970FB622
:10136000F8949EBF0FBE8DBFADB7BEB71196FE01FC
:10137000319684E101900D928150E1F78E010F5F6B
:101380001F4FC8010E948801A980BA804B815C81EF
:101390008D809E806F81788569847A84EB84FC845B
:1013A0004D845E84CF84D888DE015596F80184E1AF
:1013B00001900D928150E1F7ABA1BCA1EF8DF8A196
:1013C0002B8D3C8D8DB79EB744960FB6F8949EBF7B
:1013D0000FBE8DBF8F89988D181619060CF097C017
:1013E000121613060CF093C01E161F060CF08FC0C9
:1013F0001A161B060CF08BC0C501880F991F8A0DA9
:101400009B1DE3E0880F991FEA95E1F7480F591FEC
:101410004E565E4FFA018081882309F078C0C401DE
:10142000880F991F880D991D33E0880F991F3A95F1
:10143000E1F7680F791F6E567E4FFB01808188238C
:1014400009F065C0C301880F991F860D971D03E041
:10145000880F991F0A95E1F7E80EF91E82E991E0DD
:10146000E80EF91EF7018081882309F050C0C201FF
:10147000880F991F840D951DB3E0880F991FBA95A9
:10148000E1F7C80ED91E82E991E0C80ED91EF60117
:101490008081882309F03BC0F8948DB79EB74497AC
:1014A0000FB6F8949EBF0FBE8DBFADB7BEB71196F5
:1014B000EBE6F1E084E101900D928150E1F70E94AA
:1014C000250680917D0190917E01019790937E0188
:1014D00080937D0100D02DB73EB72F5F3F4FD901DC
:1014E000EBE6F1E084E101900D928150E1F78FEF9E
:1014F00095E0F901958B848B0E94DE0578948DB779
:101500009EB746960FB6F8949EBF0FBE8DBFA896A5
:101510000FB6F894DEBF0FBECDBFCF91DF911F9104
:101520000F91FF90EF90DF90CF90BF90AF909F9082
:101530008F907F906F905F904F900895EF92FF9201
:101540000F931F93DF93CF93CDB7DEB764970FB69A
:10155000F894DEBF0FBECDBFF82EE92E84E00E94C6
:101560003712882309F44AC0F8948DB79EB7449780
:101570000FB6F8949EBF0FBE8DBFADB7BEB7119624
:10158000EBE6F1E084E101900D928150E1F70E94D9
:101590002506ADB7BEB71196EBE6F1E084E1019008
:1015A0000D928150E1F78E010F5F1F4FC8010E941D
:1015B000DC02ABE6B1E0F80184E101900D928150CC
:1015C000E1F700D02DB73EB72F5F3F4FD901EBE6D3
:1015D000F1E084E101900D928150E1F78FEF95E009
:1015E000F901958B848B0E94DE0578948DB79EB7A8
:1015F00046960FB6F8949EBF0FBE8DBF88E00E943E
:101600003712882341F00E944F0681E090E09093CA
:1016100061018093600180E10E943712882311F0FC
:101620000E94580980E20E943712882341F00E94EC
:10163000480781E090E0909361018093600180E829
:101640000E94611280E80E94511284E00E944212BE
:1016500088E00E944212882379F080916001909185
:101660006101181619061CF00E944F0605C001976B
:10167000909361018093600180E10E94421288236F
:1016800011F00E94580980E20E944212882379F0EA
:101690008091600190916101181619061CF00E945A
:1016A000480705C00197909361018093600182E033
:1016B0000E94421280E40E9461128F2D9E2D64963A
:1016C0000FB6F894DEBF0FBECDBFCF91DF911F9153
:1016D0000F91FF90EF900895AF92BF92CF92DF925B
:1016E000EF92FF920F931F93DF93CF93CDB7DEB7A7
:1016F00028970FB6F894DEBF0FBECDBF87E390E00A
:101700009A8389838BE990E09C838B831E821D8260
:1017100080EF90E098878F83F8940E94520E298181
:101720003A814B815C816D817E818F81988500E05B
:1017300010E00E94410D7894AA24BB2414C07501C6
:101740008601C801B7010E9429050894C11CD11C5B
:1017500088E1C816D10499F70894A11CB11C8AE04D
:10176000A816B10419F0CC24DD24E9CF87ED90E070
:10177000282F9A83898389E091E0482F9C838B836B
:101780008AE590E098878F83EEE1F0E06E2FFE838C
:10179000ED833A815C817E81988500E010E00E94B3
:1017A000410DB0E1AB2EB12C14C075018601C8010A
:1017B000B7010E9429050894C11CD11C85E1C816F7
:1017C000D10499F70894A11CB11C85E1A816B104B5
:1017D00021F0AFE0CA2ED12CE8CF28960FB6F894AE
:1017E000DEBF0FBECDBFCF91DF911F910F91FF9054
:1017F000EF90DF90CF90BF90AF900895CF92DF929F
:10180000EF92FF920F931F93DF93CF93CDB7DEB785
:1018100064970FB6F894DEBF0FBECDBF0E94CB0415
:1018200089E898E04CE251E060E070E021E030E0CF
:101830000E9481118EE99AE042E350E060E070E09E
:1018400021E030E00E94811184E0C82ED12C85E196
:10185000E82EF12C8E010F5F1F4FC801B701A601C2
:101860000E94D603ABE6B1E0F80184E101900D924D
:101870008150E1F70E946C0B8091620190916301AD
:1018800067ED70E048E750E00E9442108BE291E083
:1018900067ED70E044E150E00E94FF0F01E1C02ECF
:1018A000D12C10E1E12EF12C8E010F5F1F4FC801EA
:1018B000B701A6010E94D603AFE7B1E0F80184E1C9
:1018C00001900D928150E1F78DB79EB746970FB604
:1018D000F8949EBF0FBE8DBF2DB73EB72F5F3F4F11
:1018E000D901EFE7F1E084E101900D928150E1F739
:1018F0008FEF95E0F901958B848B0E94DE058DB703
:101900009EB746960FB6F8949EBF0FBE8DBFFFCF11
:1019100093E89093B00091E09093B1008093B3006E
:101920000895282F80938B0286E390E080930040F7
:10193000222389F480EF90E09093880280938702BD
:1019400080E491E090938A028093890288E490E099
:101950008093004138C0213089F480E491E0909375
:1019600088028093870280EF90E090938A028093B0
:10197000890288EE90E08093004125C0223089F4EE
:1019800080EF90E0909388028093870280E491E05A
:1019900090938A028093890288E890E080930041C6
:1019A00012C0233081F480E491E090938802809308
:1019B000870280EF90E090938A028093890288E208
:1019C00090E0809300418AE290E08093004020E024
:1019D00030E0309300412093004180918702909144
:1019E0008802019790930041809300418BE290E040
:1019F0008093004030930041209300418091890200
:101A000090918A020197909300418093004108953C
:101A10001F93682F873718F010E066E711C08830F1
:101A200010F468E00CC08D3310F010E009C08F3165
:101A300010F011E005C0803110F012E001C013E099
:101A400081EB90E0809300401093004170E0882784
:101A500077FD8095982F0E9497139B01AC0160E061
:101A600070E080EF94E40E9401130E94691370E01B
:101A700002C0759567951A95E2F7609300411F9132
:101A800008950F931F93DF93CF93CDB7DEB72897B9
:101A90000FB6F894DEBF0FBECDBF29833A834B83C8
:101AA0005C836D837E838F83988769817A812B81A4
:101AB0003C81ED81FE814F8158858AE290E08093E0
:101AC00000407093004160930041309300412093A7
:101AD00000418BE290E080930040F0930041E0935E
:101AE000004150930041409300418CE290E080938C
:101AF00000402F5F3F4F261B370B4F5F5F4F4E1B42
:101B00005F0B24173507C8F4842F877090E0829FFD
:101B1000B001839F700D929F700D1124F3E05695D4
:101B20004795FA95E1F7842F90E0829FF001839F1B
:101B3000F00D929FF00D112418C0822F877090E055
:101B4000849FB001859F700D949F700D1124E3E078
:101B500036952795EA95E1F7822F90E0849FF00172
:101B6000859FF00D949FF00D1124862F877005C07E
:101B7000109300410093004181508823C9F7CB01A5
:101B800023E0969587952A95E1F78E0F9F1F21C038
:101B900010930041009300411093004100930041D5
:101BA00010930041009300411093004100930041C5
:101BB00010930041009300411093004100930041B5
:101BC00010930041009300411093004100930041A5
:101BD00001970097E9F628960FB6F894DEBF0FBE7E
:101BE000CDBFCF91DF911F910F910895EF92FF929A
:101BF0000F931F93DF93CF93CDB7DEB728970FB620
:101C0000F894DEBF0FBECDBF29833A834B835C833C
:101C10006D837E838F83988729813A81AB81BC81D4
:101C2000ED80FE806F8178858AE290E080930040AD
:101C30003093004120930041B0930041A0930041B4
:101C40008BE290E080930040F0920041E0920041EE
:101C500070930041609300418CE290E080930040DB
:101C60000FC0F801819191918F0190930041809371
:101C700000414F5F5F4F6417750798F72F5F3F4F25
:101C8000A217B30710F0A701F6CF28960FB6F89465
:101C9000DEBF0FBECDBFCF91DF911F910F91FF909F
:101CA000EF9008950F931F93DF93CF93CDB7DEB7D7
:101CB00028970FB6F894DEBF0FBECDBF10928D02ED
:101CC00010928C0210928F0210928E022091870245
:101CD00030918802215030408091890290918A028F
:101CE00001971A821982422F3C832B831E821D8208
:101CF00098878F83009192021091930229813A81F3
:101D00005C816D817E8198850E94410D28960FB679
:101D1000F894DEBF0FBECDBFCF91DF911F910F9121
:101D2000089586E08093750080E8809374003F9A60
:101D3000249A80ED97E00197F1F7479880E49CE9B9
:101D40000197F1F7479A80EB94E028EC30E0F90135
:101D50003197F1F70197D9F788E290E0809300403E
:101D600081E190E08093004088E592E028EC30E04B
:101D7000F9013197F1F70197D9F741E050E08BEC89
:101D800090E0809300404093004180EC90E080938D
:101D9000004088E096E2909300418093004120E16A
:101DA00030E081EC90E0809300402093004185EC8E
:101DB00090E0809300408EE395E390930041809300
:101DC000004125EB30E087EC90E0809300402093C9
:101DD000004186EF90E0809300404093004180E016
:101DE00090E0909300418093004125E530E08AE344
:101DF00090E0809300402093004181E00E94910C8C
:101E00000E94520E10928D0210928C0210928F023C
:101E100010928E028FEF95E090939302809392023E
:101E20008FEF9FEF909391028093900289E290E070
:101E30008093004084EF91E028EC30E0F901319785
:101E4000F1F70197D9F780E090E025E330E02093A7
:101E500000408093004180916A00806280936A0014
:101E60002C9A0895CF92DF92EF92FF920F931F93D7
:101E7000CF93DF93982F40918C0250918D028A016D
:101E80000C5F1F4F20918E0230918F028A30A9F48F
:101E900010928D0210928C02285F3F4F30938F0278
:101EA00020938E028091890290918A022817390727
:101EB00008F489C00E94520E86C080528F3508F007
:101EC00082C0E901279685E0989FF0011124E8502F
:101ED000F0408BE290E080930040309300412093EB
:101EE0000041D0930041C0930041BAE2CB2ED12CE7
:101EF000ACE2EA2EF12C29C0C09200405093004180
:101F0000409300415093004140930041E0920040D3
:101F1000B491B901A1E013C08A2F8B2329F08091DD
:101F200090029091910204C080919202909193024C
:101F300090930041809300416F5F7F4FAA0FC617B7
:101F4000D70750F731964F5F5F4F04171507A0F67C
:101F50008AE290E08093004050930041409300411A
:101F600050930041409300418CE290E08093004008
:101F70000AC08091920290919302909300418093C5
:101F800000412F5F3F4FC217D30798F780918C0213
:101F900090918D02069690938D0280938C022091F1
:101FA0008702309188028217930768F010928D02A1
:101FB00010928C0280918E0290918F0208969093DD
:101FC0008F0280938E02DF91CF911F910F91FF902E
:101FD000EF90DF90CF9008951F93CF93DF93EC01A4
:101FE00010E003C00E94320F1F5FFE01E10FF11DE0
:101FF00080818823B9F7DF91CF911F9108951F93B6
:10200000CF93DF93EC0170938D0260938C02509319
:102010008F0240938E0210E003C00E94320F1F5FB8
:10202000FE01E10FF11D80818823B9F7DF91CF9187
:102030001F910895EF92FF920F931F93CF93DF9319
:10204000C0E0D0E010E8E12EF12C082F10E0C7012D
:102050000C2E02C0959587950A94E2F78023912370
:10206000892B11F081E301C08EE20E94320F21968C
:10207000C830D10561F7DF91CF911F910F91FF908B
:10208000EF900895CF92DF92EF92FF920F931F93FC
:10209000DF93CF93CDB7DEB76A970FB6F894DEBF64
:1020A0000FBECDBF7B016A0100D000D000D0EDB7DC
:1020B000FEB731969E012F5F3F4FADB7BEB7129668
:1020C0003C932E93119726E331E03383228395834B
:1020D00084830E942315DE011B96E9E3F1E088E08A
:1020E00001900D928150E1F7FE01739688E0DF01C7
:1020F0001D928A95E9F78DB79EB706960FB6F894AC
:102100009EBF0FBE8DBF8E01055F1F4FC801BE0170
:102110006F5F7F4F0E941815C801B701A6010E948A
:10212000FF0F6A960FB6F894DEBF0FBECDBFCF91FA
:10213000DF911F910F91FF90EF90DF90CF90089566
:102140001F920F920FB60F920BB60F9211249F920F
:10215000AF92BF92CF92DF92EF92FF920F931F93B5
:102160002F933F934F935F936F937F938F939F939F
:10217000AF93BF93CF93DF93EF93FF93BB248DE097
:10218000C82ED12C99249394AA24AA947EC0EC9CA6
:10219000E001ED9CD00DFC9CD00D1124CC56DD4F00
:1021A0002D813E814F81588589819A81AB81BC8187
:1021B000281739074A075B0708F452C09091640159
:1021C000E92FF0E0E65BFE4F8081B81608F048C0CA
:1021D0008881882309F044C0F894EC9CF001ED9CC0
:1021E000F00DFC9CF00D1124EC56FD4F158216826B
:1021F000178210869082E92FEF5FE0936401F0E090
:10220000E65BFE4FB0827894EC9C8001ED9C100D53
:10221000FC9C100D11240C561D4FD8011996ED9100
:10222000FC911A971B968D919C911C970995F8012A
:1022300094878387F894EC9CF001ED9CF00DFC9C56
:10224000F00D1124EC56FD4F108280916401E82FAF
:10225000F0E0E65BFE4FA0828150809364017894A9
:10226000EC9CF001ED9CF00DFC9CF00D1124EC5663
:10227000FD4F85819681A781B0850196A11DB11D75
:1022800085839683A783B087B394EB2CFF2480913A
:102290004901992787FD90958E159F050CF077CF02
:1022A000FF91EF91DF91CF91BF91AF919F918F916E
:1022B0007F916F915F914F913F912F911F910F915E
:1022C000FF90EF90DF90CF90BF90AF909F900F90D6
:1022D0000BBE0F900FBE0F901F90189583E884BD22
:1022E00085B5836085BD81E080936E0016BC8FEF5D
:1022F00087BD0895882319F087BD279A08952798E8
:102300000895EF92FF920F931F93CF93DF937C0179
:10231000890180914901C82FDD27C7FDD0952196FD
:10232000CA30D1051CF0CFEFDFEF2CC0CB01BA01D2
:102330000E94951325E732E04AEF5EE30E942314E2
:1023400020E030E040E05FE30E949D120E946913AC
:102350002DE030E0C29FF001C39FF00DD29FF00D41
:102360001124EC56FD4F61837283838394836583CC
:102370007683878390871082F286E18614870387AD
:10238000C0934901CE01DF91CF911F910F91FF9032
:10239000EF900895482FF8948CB185FD02C030E08D
:1023A00001C033E084FF02C081E0382720916A0138
:1023B000231B20FF09C030936A01809119038150CB
:1023C0002270820F809319037894842F0895F894D3
:1023D0008091190390911903917090931903789447
:1023E00085950895AC01F8943091180386B12CB10D
:1023F00093B12F67806C28239F6B29232095232777
:102400008091690182238095809369019091680190
:10241000922398279093680182238923909118032F
:1024200098279093180320911603909118038923FD
:10243000822B80931603809118038C7F19F48CE310
:1024400080936701809167018150809367018823A1
:1024500059F48AE0809367019091170380911803E3
:102460008C7F892B809317037894CA010895F89480
:102470009091160389239091160398279093160341
:1024800078940895F89490911703892390911703F5
:1024900098279093170378940895909118038923AF
:1024A0000895F89490911803F8942091160390954C
:1024B000892382239091160398279093160378948A
:1024C0000895982FF894809117039823809117030B
:1024D0008927809317037894F894809116038923B1
:1024E00090911603982790931603789408958DB1D0
:1024F0008F7C8DB98EB180638EB96F98779A87B1D2
:10250000837C87B988B18C6388B926982E9A8AEC27
:1025100091E142E050E060E070E020E030E00E94B5
:10252000811182EF91E14AE050E060E070E020E04C
:1025300030E00E94811108955058BB27AA270ED081
:1025400048C139D130F03ED120F031F49F3F11F431
:102550001EF42EC10EF4E095E7FB24C1E92F4AD109
:1025600080F3BA17620773078407950718F071F4B0
:102570009EF562C10EF4E0950B2EBA2FA02D0B0133
:10258000B90190010C01CA01A0011124FF27591BB8
:1025900099F0593F50F4503E68F11A16F040A22FBE
:1025A000232F342F4427585FF3CF4695379527952F
:1025B000A795F0405395C9F77EF41F16BA0B620B2E
:1025C000730B840BBAF09150A1F0FF0FBB1F661F75
:1025D000771F881FC2F70EC0BA0F621F731F841FB8
:1025E00048F4879577956795B795F7959E3F08F0DE
:1025F000B3CF9395880F08F09927EE0F979587959D
:1026000008950CD0E6C0DED040F0D5D030F021F4F3
:102610005F3F19F0C7C0511110C1CAC0EBD098F389
:102620009923C9F35523B1F3951B550BBB27AA2753
:1026300062177307840738F09F5F5F4F220F331FC5
:10264000441FAA1FA9F333D00E2E3AF0E0E830D091
:1026500091505040E695001CCAF729D0FE2F27D094
:10266000660F771F881FBB1F261737074807AB0762
:10267000B0E809F0BB0B802DBF01FF2793585F4FD7
:102680002AF09E3F510568F08DC0D7C05F3FECF344
:10269000983EDCF3869577956795B795F7959F5F9C
:1026A000C9F7880F911D9695879597F90895E1E0F0
:1026B000660F771F881FBB1F621773078407BA074F
:1026C00020F0621B730B840BBA0BEE1F88F7E095AA
:1026D000089598D088F09F5790F0B92F9927B75157
:1026E000A0F0D1F0660F771F881F991F1AF0BA95D6
:1026F000C9F712C0B13081F09FD0B1E008959CC0FD
:10270000672F782F8827B85F39F0B93FCCF38695CB
:1027100077956795B395D9F73EF490958095709528
:1027200061957F4F8F4F9F4F0895E89409C097FBA5
:102730003EF490958095709561957F4F8F4F9F4F98
:102740009923A9F0F92F96E9BB279395F6958795DC
:1027500077956795B795F111F8CFFAF4BB0F11F49F
:1027600060FF1BC06F5F7F4F8F4F9F4F16C0882346
:1027700011F096E911C0772321F09EE8872F762F7C
:1027800005C0662371F096E8862F70E060E02AF0BD
:102790009A95660F771F881FDAF7880F96958795A9
:1027A00097F9089597F99F6780E870E060E00895D1
:1027B0009FEF80EC089500240A9416161706180659
:1027C0000906089500240A94121613061406050635
:1027D0000895092E0394000C11F4882352F0BB0FC6
:1027E00040F4BF2B11F460FF04C06F5F7F4F8F4F29
:1027F0009F4F089557FD9058440F551F59F05F3F64
:1028000071F04795880F97FB991F61F09F3F79F012
:1028100087950895121613061406551FF2CF469594
:10282000F1DF08C0161617061806991FF1CF869516
:102830007105610508940895E894BB2766277727FA
:10284000CB0197F908950BD0C4CFB5DF28F0BADFDC
:1028500018F0952309F0A6CFABCF1124EECFCADF35
:10286000A0F3959FD1F3950F50E0551F629FF001A3
:10287000729FBB27F00DB11D639FAA27F00DB11DFC
:10288000AA1F649F6627B00DA11D661F829F222785
:10289000B00DA11D621F739FB00DA11D621F839F0C
:1028A000A00D611D221F749F3327A00D611D231FE2
:1028B000849F600D211D822F762F6A2F11249F5730
:1028C00050408AF0E1F088234AF0EE0FFF1FBB1F53
:1028D000661F771F881F91505040A9F79E3F5105F2
:1028E00070F060CFAACF5F3FECF3983EDCF38695A3
:1028F00077956795B795F795E7959F5FC1F7FE2B9D
:10290000880F911D9695879597F9089597FB092E45
:1029100007260AD077FD04D00CD006D000201AF488
:10292000709561957F4F0895F6F7909581959F4F2B
:102930000895AA1BBB1B51E107C0AA1FBB1FA61706
:10294000B70710F0A61BB70B881F991F5A95A9F758
:1029500080959095BC01CD010895AF92BF92CF9222
:10296000DF92EF92FF920F931F93CF93DF93EC01CF
:10297000A880B980CA80DB80A114B104C104D1044D
:1029800041F484E2A82E89EDB82E8BE5C82E87E0AD
:10299000D82EC601B5012DE133EF41E050E00E9491
:1029A000191827EA31E440E050E00E94FA177B0151
:1029B0008C01C601B5012DE133EF41E050E00E94EA
:1029C0001918CA01B9012CEE34EF4FEF5FEF0E94E6
:1029D000FA176E0D7F1D801F911F97FF04C0615075
:1029E000704080409048688379838A839B839B01F1
:1029F0003F77C901DF91CF911F910F91FF90EF9029
:102A0000DF90CF90BF90AF9008950E94AD140895CD
:102A100089E591E00E94AD140895A0E0B0E08093B4
:102A2000590190935A01A0935B01B0935C01089502
:102A3000FB01DC010D900020E9F7119701900D9248
:102A40000020E1F708950F931F93DF93CF93CDB745
:102A5000DEB72E970FB6F894DEBF0FBECDBF0D893F
:102A60001E8986E08C831A8309838FEF9FE79E83FC
:102A70008D839E01275E3F4FCE0101966F89788D31
:102A8000A9010E9454152F813885020F131FF801E8
:102A900010822E960FB6F894DEBF0FBECDBFCF9139
:102AA000DF911F910F9108952F923F924F925F9265
:102AB0006F927F928F929F92AF92BF92CF92DF924E
:102AC000EF92FF920F931F93DF93CF93CDB7DEB7B3
:102AD0002B970FB6F894DEBF0FBECDBF3C012B0184
:102AE0005A01FC0117821682838181FD03C06FEFBA
:102AF0007FEFC6C19AE0892E1E010894211C311C6B
:102B0000F3012381F20123FD859123FF81912F01A0
:102B1000882309F4B2C1853239F423FD859123FF5E
:102B200081912F01853229F490E0B3010E94701742
:102B3000E7CF982FFF24EE249924FFE1FF15D0F072
:102B40009B3269F09C3228F4903259F0933291F420
:102B50000EC09D3249F0903369F441E024C052E048
:102B6000F52A84E0F82A28C098E0F92A25C0E0E197
:102B7000FE2A22C0F7FC29C0892F80538A3070F4C6
:102B8000F6FE05C0989C902C1124980E15C0E89C68
:102B9000E02C1124E80EF0E2FF2A0EC09E3229F448
:102BA000F6FC6BC140E4F42A07C09C3619F450E8E7
:102BB000F52A02C0983649F4F20123FD959123FFCE
:102BC00091912F01992309F0B8CF892F8554833033
:102BD00018F08052833038F444E050E0A40EB51E63
:102BE0005FE359830FC0933631F0933779F0933513
:102BF00009F056C020C0F5018081898342E050E091
:102C0000A40EB51E610101E010E012C0F501C08004
:102C1000D180F6FC03C06FEF7FEF02C0692D70E03A
:102C200042E050E0A40EB51EC6010E9465178C015B
:102C30005FE7F52214C0F501C080D180F6FC03C027
:102C40006FEF7FEF02C0692D70E042E050E0A40E0C
:102C5000B51EC6010E945A178C0150E8F52AF3FEF2
:102C600007C01AC080E290E0B3010E947017EA9496
:102C70008E2D90E008171907A8F30EC0F601F7FC97
:102C80008591F7FE81916F0190E0B3010E9470176A
:102C9000E110EA94015010400115110579F7EAC0DE
:102CA000943611F0993669F5F7FE08C0F5012081D8
:102CB00031814281538184E090E00AC0F501808136
:102CC00091819C01442737FD4095542F82E090E08C
:102CD000A80EB91E9FE6F92257FF09C050954095EE
:102CE000309521953F4F4F4F5F4FE0E8FE2ACA01D4
:102CF000B901A1012AE030E00E949C17D82ED21819
:102D000040C0953729F41F2D1F7E2AE030E01DC0FA
:102D10001F2D197F9F3661F0903720F4983509F008
:102D2000ACC00FC0903739F0983709F0A6C004C086
:102D300028E030E00AC0106114FD146020E130E0AA
:102D400004C014FD166020E132E017FF08C0F50151
:102D5000608171818281938144E050E008C0F50177
:102D600080819181BC0180E090E042E050E0A40EBF
:102D7000B51EA1010E949C17D82ED2188FE7F82EFD
:102D8000F122F6FE0BC05EEFF522D91438F4F4FE02
:102D900007C0F2FC05C08FEEF82202C01D2D01C055
:102DA000192DF4FE0DC0FE01ED0DF11D8081803363
:102DB00019F499EEF92208C01F5FF2FE05C003C0A6
:102DC0008F2D867809F01F5F0F2DF3FC14C0F0FEE5
:102DD0000FC01E1510F09D2C0BC09D2C9E0C911A3F
:102DE0001E2D06C080E290E0B3010E9470171F5FA5
:102DF0001E15C0F304C01E1510F4E11A01C0EE2424
:102E000004FF0FC080E390E0B3010E94701702FF3F
:102E10001DC001FD03C088E790E00EC088E590E08A
:102E20000BC0802F867891F001FF02C08BE201C0B9
:102E300080E2F7FC8DE290E0B3010E94701706C0BB
:102E400080E390E0B3010E9470179A94D914C0F304
:102E5000DA94F101ED0DF11D808190E0B3010E9443
:102E60007017DD20A9F706C080E290E0B3010E9450
:102E70007017EA94EE20C1F743CEF30166817781A3
:102E8000CB012B960FB6F894DEBF0FBECDBFCF910E
:102E9000DF911F910F91FF90EF90DF90CF90BF9047
:102EA000AF909F908F907F906F905F904F903F90EA
:102EB0002F900895FC010590615070400110D8F7E3
:102EC000809590958E0F9F1F0895FC016150704072
:102ED00001900110D8F7809590958E0F9F1F08954F
:102EE0000F931F93CF93DF938C01EB018B8181FFB5
:102EF0001BC082FF0DC02E813F818C819D812817D0
:102F0000390764F4E881F9810193F983E88306C005
:102F1000E885F985802F0995892B31F48E819F8171
:102F200001969F838E8302C00FEF1FEFC801DF91D0
:102F3000CF911F910F910895FA01AA27283051F1DE
:102F4000203181F1E8946F936E7F6E5F7F4F8F4FDA
:102F50009F4FAF4FB1E03ED0B4E03CD0670F781F39
:102F6000891F9A1FA11D680F791F8A1F911DA11D1E
:102F70006A0F711D811D911DA11D20D009F4689457
:102F80003F912AE0269F11243019305D3193DEF6FF
:102F9000CF010895462F4770405D4193B3E00FD0B5
:102FA000C9F7F6CF462F4F70405D4A3318F0495DA0
:102FB00031FD4052419302D0A9F7EACFB4E0A69583
:102FC0009795879577956795BA95C9F700976105A5
:102FD000710508959B01AC010A2E069457954795FB
:102FE00037952795BA95C9F7620F731F841F951FF0
:102FF000A01D0895629FD001739FF001829FE00D94
:10300000F11D649FE00DF11D929FF00D839FF00D67
:10301000749FF00D659FF00D9927729FB00DE11D13
:10302000F91F639FB00DE11DF91FBD01CF011124F0
:10303000089597FB092E05260ED057FD04D014D015
:103040000AD0001C38F450954095309521953F4F9B
:103050004F4F5F4F0895F6F7909580957095619565
:103060007F4F8F4F9F4F0895A1E21A2EAA1BBB1BC3
:10307000FD010DC0AA1FBB1FEE1FFF1FA217B30744
:10308000E407F50720F0A21BB30BE40BF50B661F5A
:10309000771F881F991F1A9469F76095709580951E
:1030A00090959B01AC01BD01CF010895F894FFCF2D
:1030B000536F6D657468696E672077656E742077ED
:1030C000726F6E6720776974680A20626C6F636B39
:1030D000206372656174696F6E0A004E65787420B2
:1030E000426C6F636B002564004C696E65733A2017
:1030F000000000000000000000FFFF0000000000D2
:0E3100000000000000FF0000000100000000C1
:00000001FF
